:020000040800F2
:1000000000000820BD7E00084506000847060008DD
:10001000490600084B0600084D06000800000000D5
:100020000000000000000000000000004F06000873
:10003000510600080000000053060008550600089D
:100040000D7F00080D7F00080D7F00080D7F000860
:100050000D7F00080D7F0008815900080D7F000802
:100060000D7F00080D7F00080D7F00080D7F000840
:100070000D7F00080D7F00080D7F00080D7F000830
:100080000D7F00080D7F00080D7F00080D7F000820
:100090000D7F00080D7F00080D7F00080D7F000810
:1000A0000D7F00080D7F00080D7F00080D7F000800
:1000B0000D7F00080D7F00080D7F00080D7F0008F0
:1000C0000D7F00080D7F00080D7F00080D7F0008E0
:1000D0000D7F0008256000080D7F00080D7F0008D7
:1000E0000D7F00080D7F00080D7F00080D7F0008C0
:1000F0000D7F00080D7F00080D7F00080D7F0008B0
:100100000D7F00080D7F00080D7F00080D7F00089F
:100110000D7F00080D7F00080D7F00080D7F00088F
:100120000D7F00080D7F0008DD5F00080D7F0008CF
:100130000D7F00080D7F00080D7F00080D7F00086F
:100140000D7F00080D7F00080D7F00080D7F00085F
:100150002D5D00080D7F0008EB5F00080D7F000893
:100160000D7F00080D7F00080D7F00080D7F00083F
:100170000D7F00080D7F00080D7F000800000000C3
:100180000D7F00080D7F00080D7F00080D7F00081F
:100190000D7F00080D7F00080D7F00080D7F00080F
:1001A00000000000000000000D7F00080D7F000827
:1001B0000D7F00080D7F00080D7F00080D7F0008EF
:1001C0000D7F00080D7F0008000000000D7F000873
:1001D0000D7F00080D7F00080D7F00080D7F0008CF
:1001E0000D7F00080D7F00080D7F00080D7F0008BF
:0801F000000000000D7F000873
:1001F80010B5054C237833B9044B13B10448AFF359
:1002080000800123237010BD6C080020000000004E
:100218003C8C0008084B10B51BB108480849AFF3DF
:1002280000800848036803B910BD074B002BFBD0BA
:10023800BDE81040184700BF000000003C8C0008D3
:10024800700800206808002000000000154B002BF3
:1002580008BF134B9D46A3F5803A00218B460F46F5
:100268001348144A121A07F035FC0F4B002B00D024
:1002780098470E4B002B00D098470020002104001F
:100288000D000D48002802D00C4807F0E5FC07F0E7
:10029800F9FB2000290007F04FFD07F0E3FB00BF42
:1002A800000008000000000000000000000000003E
:1002B8006C080020E44F0020617C00086D7C000879
:1002C80010B5C0430A44914209D011F8013B054CCE
:1002D8004340DBB254F8233083EA1020F3E7C043ED
:1002E80010BD00BF588C000843780B41DB0701D4D0
:1002F800032310E0012914D015D3022918D18388CB
:1003080001339BB242F2CE329342838005D9B0F8D2
:100318000E3113B105230370704707234370202360
:1003280005E0417001E0022343708378013B83704C
:1003380083782BB901220270A0F80C31C371837144
:100348007047037810B50A46044613B1012B03D051
:100358003FE0FFF7C9FF3CE0022902D10323037005
:1003680037E0B0F80C311844C1791143A279C17152
:100378000132D2B2082AA27129D101339BB20020DE
:10038800B3F5827FA071A4F80C311DD14FF48072AF
:10039800E11DFFF795FF94F8083194F807211B0435
:1003A80043EA026394F80A21134394F8092143EAC3
:1003B800022398420CBF02200420B4F80E312070AA
:1003C8000133A4F80E3104E02344D87101E0490058
:1003D800C171207810BD00BF08B54BF6803005F01C
:1003E800D1FA05F069FBBDE8084006F0B3B908B5D5
:1003F80005F0D6FCBDE8084005F08CBB08B506F052
:100408000FFB05F0D9FC05F03BFD05F0ADF9012027
:10041800BDE8084000F0CAB908B5FFF7E8FF05F0E5
:10042800FBFC05F049FDBDE8084005F00BBA37B5FF
:1004380000248DF807402125013D0ED00DF107005D
:1004480005F044FA9DF80730042B08BF01344FF437
:100458007A7300BF013BFCD1EEE7102C94BF00205B
:10046800012003B030BD37B500248DF807402125A1
:10047800013D0ED00DF1070005F028FA9DF8073070
:10048800082B08BF01344FF47A7300BF013BFCD13D
:10049800EEE7102C94BF0020012003B030BD37B523
:1004A80000248DF807402125013D12D00DF10700E9
:1004B80005F00CFA9DF80730052B0EBF0123B3FA9F
:1004C80083F35B091C444FF47A7300BF013BFCD1F2
:1004D800EAE7102C94BF0020012003B030BD024B86
:1004E800187040B205F0F4BF880800202DE9F041EB
:1004F80080462DED028B00200C46154606F0F2F8DA
:10050800354B9FED368A93F89410D3F88C70D3F856
:1005180090E05E78013DADB24FF6FF7295424BD048
:10052800D8F800201202B2F17E4F08F1040C05DC65
:10053800F7EE007A38EE678A002609E0B2F1007F0C
:10054800A5BFF7EE007A38EE278A9FED248A0126A8
:100558002348026862BB16F1000818BF4FF0010873
:10056800414505D1D3F898200132C3F8982021E0FD
:10057800D3F89800B84204D2704534BF0020012057
:1005880000E0022093F89C2022B11349013A81F837
:100598009C200220D3F888105A18013101F07F01FD
:1005A80010710022C3F88810C3F89820414601E072
:1005B800013A0260E046ADE7B0EE480A5E7083F8A3
:1005C800941005F04FFFB0EE480ABDEC028B2046B0
:1005D800BDE8F04106F020B98808002000000000BE
:1005E80004000020134BFF2283F8A120202283F867
:1005F800A2200C22C3F88C2006220020C3F89020E9
:100608000422C3F8880083F89C20A3F8AE010A4AA4
:10061800C3F8840083F8A000A3F8A40083F894002A
:10062800C3F89800C3F8B021A3F8B401A3F8B60141
:10063800FFF755BF88080020008001087047FEE7D3
:10064800FEE7FEE7FEE770477047704700F0A0B886
:100658000F49D1F8883043F47003C1F888300D4B46
:100668001A68002042F001021A6098601A6822F0A5
:10067800847222F480321A60074A5A601A6822F497
:1006880080221A60D8604FF000638B60704700BF0B
:1006980000ED00E00038024010300024174A1849E5
:1006A800936803F00C03042B03D0082B03D0154BDD
:1006B80018E0154B16E05068536810F4800F03F0EB
:1006C8003F03506814BF104A0E4AB2FBF3F30B4ABB
:1006D8005268C2F30142C0F388100132434352000A
:1006E800B3FBF2F30B60054B084A9B68C3F3031393
:1006F800D25C0B68D3400B60704700BF00380240E3
:10070800080000200024F40000127A005890000825
:10071800704770477047704710B5094B4FF0FF326C
:1007280000241A621C625A625C621A611C615A6176
:100738005C619A619C61FFF7ECFF204610BD00BF29
:100748000038024010B5084B044618684FF47A7315
:10075800B0FBF3F000F026F94FF0FF3021460022FD
:1007680000F0C6F8002010BD08000020074A08B5B0
:10077800136843F400731360032000F0A7F80F20F8
:10078800FFF7E0FFFFF7C4FF002008BD003C024070
:10079800024A136801331360704700BF584B0020AA
:1007A800014B1868704700BF584B002013B50190E3
:1007B800FFF7F6FF0446FFF7F3FF019B001B984283
:1007C800F9D302B010BD034A136823F00203136083
:1007D800704700BF10E000E0024A136843F00203CC
:1007E8001360704710E000E0004870470002020103
:1007F800014B1868000C7047002004E0024B186891
:10080800C0F30B00704700BF002004E0024A5368A1
:1008180043F0010353607047002004E0024A536824
:1008280023F0010353607047002004E0024A536834
:1008380043F0020353607047002004E0024A536803
:1008480023F0020353607047002004E0024A536813
:1008580043F0040353607047002004E0024A5368E1
:1008680023F0040353607047002004E0024A136A2F
:1008780043F001031362704700380140024A136ACB
:1008880023F001031362704700380140024A1368DD
:1008980043F480631360704700380140024A1368CC
:1008A80023F440631360704700380140024A13681C
:1008B80043F480731360704700380140024A13689C
:1008C80023F480731360704700380140074AD368E7
:1008D80023F4E0631B041B0C43F0BF6343F40033B1
:1008E80000F0070043EA0023D360704700ED00E002
:1008F800154BDB68C3F3022370B5C3F107051C1D54
:10090800042D28BF0425062C8CBF033B002301249B
:1009180004FA03F6AC40013C013E214099403240C4
:10092800002842EA01024FEA0212AFBF00F160401C
:1009380000F00F00054BD2B2A5BF00F56140D2B25E
:100948001A5480F8002370BD00ED00E014ED00E0BB
:100958004109012300F01F00024A834042F8213078
:10096800704700BF00E100E04309012200F01F00CA
:1009780020330249824041F82320704700E100E01B
:10098800BFF34F8F0549064BCA6802F4E062134370
:10099800CB60BFF34F8F00BFFDE700BF00ED00E065
:1009A8000400FA050138B0F1807F3FBF064B074AC3
:1009B8005860F0213FBF82F823100020072298607A
:1009C80034BF1A600120704710E000E000ED00E03D
:1009D800BFF35F8F044A536A23F480335362034B97
:1009E80000225A60704700BF00ED00E090ED00E083
:1009F800064B074A40F001005860536A43F48033BD
:100A08005362BFF34F8FBFF36F8F704790ED00E0D5
:100A180000ED00E0114943788B600378DBB143684F
:100A2800CB60C37A027B1B0643EA02730278134346
:100A3800827A43EAC243427B43EA8243827B43EAA7
:100A48004243C27B43EA0243427A43EA0223027AE0
:100A580043EA420300E0CB600B61704790ED00E091
:100A6800024BD868C0F30220704700BF00ED00E0D9
:100A7800F0B50028A8BF00F1604001F00701BABF37
:100A880000F00F000F4C00F56140C1F10706B4BF3C
:100A9800205C90F800030C1D042E28BF0426062CA9
:100AA8008CBF033900210124000904FA06F58C40A3
:100AB80020FA01F7013D013C3D40044015601C60EF
:100AC800F0BD00BF14ED00E04309012200F01F0053
:100AD80040330249824041F82320704700E100E09A
:100AE80043094033044A52F8232000F01F0322FA36
:100AF80003F000F00100704700E100E04309012223
:100B080000F01F0060330249824041F823207047FB
:100B180000E100E043098033044A52F8232000F042
:100B28001F0322FA03F000F00100704700E100E023
:100B3800044B1A6804280CBF42F0040222F0040295
:100B48001A60704710E000E0704708B5FFF7FCFF37
:100B580008BD00BF124B1A68002142F081021A60DA
:100B680099601A6822F0A16222F480321A605960F2
:100B780058680C4A02435A60C3F88410D3F884209A
:100B880042F0005242F44052C3F884201A6822F41A
:100B980080221A60D960044B044A1A60704700BF6B
:100BA8000038024010300024080000200024F4001F
:100BB8000368F7B50446D80703D42368990753D4C4
:100BC800A5E0A04B9A6802F00C02042A07D09A68A4
:100BD80002F00C02082A0BD15B685A0208D5994B1F
:100BE8001B689B03E9D56368002BE6D1012092E1DD
:100BF8006268944BB2F5803F13D05AB91A6822F450
:100C080080321A601A6822F480221A60FFF7C8FD41
:100C1800054624E0B2F5A02F1A6806D142F48022D6
:100C28001A601A6842F4803205E022F480321A60B1
:100C38001A6822F480221A60FFF7B2FD0546814B3C
:100C48001B689F03B9D4FFF7ABFD401B6428F6D996
:100C5800032060E1FFF7A4FD401B6428F8D8794B16
:100C68001B689E03F6D4A8E7764B9A6812F00C0F1F
:100C780007D09A6802F00C02082A16D15B685D0258
:100C880013D4704B1A68900702D5E268012AADD1D7
:100C98001968F82090FAA0F02269B0FA80F021F0E3
:100CA800F80182400A431A6031E0E268654BEAB114
:100CB8001A6842F001021A60FFF772FD05466148A2
:100CC8000368990705D4FFF76BFD401B0228F6D986
:100CD800BEE70268F82191FAA1F12369B1FA81F11E
:100CE80022F0F8028B401343036010E01A6822F0E8
:100CF80001021A60FFF754FD0546524B1B689A071C
:100D080005D5FFF74DFD401B0228F6D9A0E723685B
:100D18001B0703D423685F0725D48EE06269494B1B
:100D280082B15A6F42F001025A67FFF739FD054652
:100D3800444B5B6F9E07EDD4FFF732FD401B022842
:100D4800F6D985E75A6F22F001025A67FFF728FDA6
:100D580005463C4B5B6F9807DCD5FFF721FD401B30
:100D68000228F6D974E7374B1A6CD1005FBF1A6CAA
:100D780042F080521A641B6C5EBF03F080530193EB
:100D8800019B314B1A6854BF01250025D20504D5B3
:100D9800A2682C4B012A11D123E01A6842F4807210
:100DA8001A60FFF7FDFC0646274B1B68DB05EFD4EE
:100DB800FFF7F6FC801B6428F6D949E75AB91A6F81
:100DC80022F001021A671A6F22F004021A67FFF76D
:100DD800E7FC064627E0052A1A6F06D142F004020E
:100DE8001A671A6F42F0010205E022F001021A6741
:100DF8001A6F22F004021A67FFF7D2FC0646114B5D
:100E08001B6F9F0713D4FFF7CBFC41F28833801B7D
:100E18009842F4D91CE7FFF7C3FC41F28833801BE2
:100E280098423FF615AF074B1B6F9807F3D425B1CF
:100E3800044A136C23F080531364A16931B900206C
:100E480069E000BF0038024000700040334B9A68E8
:100E580002F00C02082A3FF4C9AE1A68022922F0EF
:100E680080721A604AD1FFF79BFC06462B4D2B680F
:100E7800990105D5FFF794FC801B0228F6D9E7E60F
:100E880047F6C07797FAA7F74FF44036B7FA87F7CF
:100E980096FAA6F64FF07061B6FA86F691FAA1F1C5
:100EA8004FF0E040B1FA81F190FAA0F0E369226ACC
:100EB800B0FA80F01A43636ABB401A43A36A5B081E
:100EC800013BB3401343E26A8A4043EA0201236BC1
:100ED80003FA00F241EA02036B602B6843F0807367
:100EE8002B60FFF75DFC04460C4B1B689A01A6D4E7
:100EF800FFF756FC001B0228F6D9A9E6FFF750FCBD
:100F08000446064B1B689B0199D5FFF749FC001B5B
:100F18000228F6D99CE603B0F0BD00BF00380240B5
:100F280070B5204C88B00D461646236BD0B943F0F7
:100F380001032363236B059003F001030193019BD5
:100F480007904FF4807303930223049303A90323A8
:100F58001548069301F050FAA16821F0EC6131437D
:100F680029431BE043F004032363236B0F4803F07A
:100F780004030293029B4FF4007303930223049328
:100F88000323069303A900230593079301F034FA7A
:100F9800A36845EAC60123F078431943A16008B065
:100FA80070BD00BF00380240000002400008024047
:100FB800024A136843F40023136070470038024064
:100FC800024A136823F40023136070470038024074
:100FD80010B51C4CA36803F00C03042B2ED0082B6F
:100FE8002ED1626802F03F03626847F6C07112F4BE
:100FF800800F626891FAA1F147F6C07000EA02001A
:1010080008BF114AB1FA81F120FA01F00EBFB2FB14
:10101800F3F20E49B1FBF3F202FB00F3094A506800
:101028004FF4403292FAA2F200F44030B2FA82F25F
:10103800D04001304000B3FBF0F010BD034810BDB4
:10104800014810BD003802400024F40000127A0064
:10105800524A136803F00F03994270B504460D46CF
:101068000AD82168880713D54D48836823F0F00211
:10107800A368134383600BE0136823F00F030B434B
:101088001360136803F00F038B42EAD0012070BD90
:10109800C90706D4414A136803F00F039D4247D39A
:1010A80050E062683E4B012A196802D111F4003FF2
:1010B80006E0022A02D111F0007F01E011F0020FD0
:1010C800E4D0996821F003010A439A60FFF768FBAE
:1010D8006368012B06460ED1314B9B6803F00C0365
:1010E800042BD7D0FFF75CFB41F28833801B984272
:1010F800F2D9032070BD022B14D1294B9B6803F051
:101108000C03082BC6D0FFF74BFB41F28833801B3A
:101118009842F2D9EDE7FFF743FB41F28833801B91
:101128009842E6D81E4B9B6813F00C0FF3D1B1E739
:10113800136823F00F032B431360136803F00F03A6
:10114800AB42A3D121684A0706D51548836823F422
:10115800E052E368134383600B0741BF104A2169DB
:10116800936823F4604344BF43EAC1039360FFF7E5
:101178002FFF0B4BF0229B6892FAA2F203F0F003C8
:10118800B2FA82F2D340074AD35CD840064B1860C3
:101198000F20FFF7D7FA002070BD00BF003C0240C7
:1011A800003802405890000808000020014B1868D9
:1011B800704700BF08000020084B4FF4E0529B68BE
:1011C80092FAA2F203F4E053B2FA82F2D340044A4C
:1011D800D35C044A1068D840704700BF003802400A
:1011E8006890000808000020084B4FF460429B6894
:1011F80092FAA2F203F46043B2FA82F2D340044AAC
:10120800D35C044A1068D840704700BF00380240D9
:1012180068900008080000200F230360324B1A680A
:10122800510310B502D54FF4A02205E01A6812F454
:10123800803218BF4FF4803242601B6813F00103FC
:1012480018BF0123C360284BF8211A6891FAA1F14D
:1012580002F0F802B1FA81F1CA4002611A6F52072E
:1012680001D5052204E01A6F12F0010218BF01220D
:1012780082605B6F1C4A13F0010318BF01234361AE
:101288001368DB014CBF022301238361536803F415
:101298008003C361536803F03F030362546847F651
:1012A800C07191FAA1F147F6C0732340B1FA81F1F8
:1012B800CB40436253684FF4403191FAA1F103F4F3
:1012C800403303F580335B00B1FA81F1CB40836290
:1012D80053684FF0706292FAA2F203F07063B2FAA8
:1012E80082F2D340C36210BD003802400F2303606E
:1012F8000B4B9A6802F0030242609A6802F0F0020F
:1013080082609A6802F4E052C2609B6803F460430A
:10131800DB080361034B1B6803F00F030B60704786
:1013280000380240003C0240704708B5044BDB68B7
:101338001B0604D5FFF7F8FF024B80221A7008BD80
:10134800003802400E38024003682DE9F34713F0D5
:10135800010604460BD0474A916821F400019160C8
:10136800466B916831439160B6FA86F6760913F4B4
:10137800002510D03F49E56BD1F88C2022F44012AB
:101388002A43B5F5801FC1F88C2015BFB5FA85F53D
:1013980000256D090126DF0210D53648216CD0F8EA
:1013A8008C2022F440020A43B1F5800FC0F88C204B
:1013B80003D0002908BF012500E0012613F0807F33
:1013C80018BF0126980662D52A4B1A6C42F0805243
:1013D8001A641B6C284A03F080530193019B13681D
:1013E80043F480731360FFF7DBF90746224B1B6851
:1013F800D90506D4FFF7D4F9C01B6428F6D9032011
:1014080022E31C4B1A6F12F440720FD1226B02F4C4
:101418004073B3F5407F174B30D1996822F0704084
:1014280020F4407021F4F81101432AE0216B01F403
:1014380040718A42EAD01A6F196F41F480311967F6
:10144800196F22F4407221F4803119671A671B6FF3
:10145800DA07DBD5FFF7A4F90746064B1B6F9B0796
:10146800D4D4FFF79DF941F28833C01B9842F4D9D0
:10147800C5E700BF0038024000700040996821F4B9
:10148800F8119960196FC2F30B020A431A672368AF
:10149800DF060CD5894AD2F88C1021F08071C2F889
:1014A8008C10D2F88C00A16B0143C2F88C10580440
:1014B80041BF8248D0F8902022F44031626E44BF88
:1014C8000A43C0F89020190441BF7C48D0F8902006
:1014D80022F44021A26E44BF0A43C0F89020DA03E8
:1014E80041BF7648D0F8902022F44011E26E44BF04
:1014F8000A43C0F890209F0341BF7048D0F890205D
:1015080022F44001226F44BF0A43C0F890205806D5
:1015180041BF6A48D0F8902022F00301626C44BFB2
:101528000A43C0F89020190641BF6448D0F89020BB
:1015380022F00C01A26C44BF0A43C0F89020DA05DF
:1015480041BF5E48D0F8902022F03001E26C44BFE1
:101558000A43C0F890209F0541BF5848D0F8902012
:1015680022F0C001226D44BF0A43C0F890205805FC
:1015780041BF5248D0F8902022F44071626D44BFB8
:101588000A43C0F89020190541BF4C48D0F8902074
:1015980022F44061A26D44BF0A43C0F89020DA04E7
:1015A80041BF4648D0F8902022F44051E26D44BF34
:1015B8000A43C0F890209F0441BF4048D0F89020CB
:1015C80022F44041226E44BF0A43C0F890205802DA
:1015D80041BF3A48D0F8902022F08061A26F44BF02
:1015E8000A43C0F8902099020CD53448E16FD0F82E
:1015F800902022F000620A43B1F1006FC0F89020F9
:1016080008BF01255A0341BF2C48D0F8902022F08A
:101618004071626F44BF0A43C0F890201F0241BF67
:101628002648D0F8902022F08051D4F8802044BF7A
:101638000A43C0F89020580141BF2048D0F89020B4
:1016480022F00051D4F8842044BF0A43C0F8902007
:10165800190141BF1948D0F88C2022F00071D4F844
:10166800882044BF0A43C0F88C20DA0041BF1348E1
:10167800D0F88C2022F08061D4F88C2044BF0A4333
:10168800C0F88C20012E06D0B3F1007F03D0012DC5
:1016980040F041811FE1094A136823F08063136019
:1016A800FFF77EF80746054E33681B0108D5FFF79C
:1016B80077F8C01B6428F6D9A1E600BF00380240BD
:1016C8002068C7073CD5636BD3BBD6F884204FF49A
:1016D800403C9CFAACF84FF07061B8FA88F8D6F83C
:1016E800843091FAA1FE47F6C079BEFA8EFE99FAC7
:1016F800A9F9B9FA89F99CFAACFCBCFA8CFC91FA04
:10170800A1F14FF0E04AB1FA81F19AFAAAFAA76872
:10171800BAFA8AFA07FA0AFA676802F4403207FA4C
:1017280009F922FA08F203F070634AEA090702FA93
:101738000CF223FA0EF33A438B401343C6F8843075
:10174800060303D5E36BB3F5801F05D0C10248D566
:10175800236CB3F5800F44D1BD4E4FF4403CD6F80E
:1017680084209CFAACF84FF0E041B8FA88F8D6F833
:10177800843091FAA1FE47F6C079BEFA8EFE99FA36
:10178800A9F9B9FA89F99CFAACFC4FF0706ABCFA6D
:101798008CFC9AFAAAFABAFA8AFA91FAA1F1E768DD
:1017A800B1FA81F107FA0AFA676802F4403207FAD7
:1017B80009F922FA08F203F0E0434AEA090702FAB3
:1017C8000CF223FA0EF33A438B401343C6F88430E5
:1017D800D6F88C30626A23F01F03013A1343C6F827
:1017E8008C30C2013BD59A4E4FF0706CD6F88420ED
:1017F8009CFAACF84FF0E041B8FA88F8D6F8843093
:1018080091FAA1FE47F6C079BEFA8EFE99FAA9F9B7
:101818004FF4403AB9FA89F99AFAAAFABAFA8AFA5E
:101828009CFAACFCBCFA8CFC91FAA1F12769B1FADC
:1018380081F107FA0AFA676802F0706207FA09F993
:1018480022FA08F203F0E0434AEA090702FA0CF226
:1018580023FA0EF33A438B401343C6F884308301CE
:1018680026D547F6C07696FAA6F64FF44037B6FA6C
:1018780086F697FAA7F74FF07060B7FA87F790FAED
:10188800A0F04FF0E041B0FA80F091FAA1F122699E
:10189800B1FA81F102FA07F36268B2401A43E368C9
:1018A80083401A43A3688B401343694AC2F88430C3
:1018B800674A136843F080631360FEF771FF0646BA
:1018C800634B1B681F013FF5E2AEFEF769FF801B03
:1018D8006428F5D993E55E4A136823F080531360B2
:1018E800FEF75EFF05465A4B1B689E0015D4256817
:1018F800280318D4E90219D4AA0260D4544A1368F8
:1019080043F080531360FEF74BFF0446504B1B68AF
:101918009B0040F19280002096E0FEF741FF401BBB
:101928006428E0D96BE5E36B1BB1E3E7236C002B7C
:10193800E2D147484FF4403ED0F888209EFAAEF8EE
:101948004FF0E041B8FA88F8D0F8883091FAA1F75A
:1019580047F6C07CB7FA87F79CFAACFCBCFA8CFC5B
:101968009EFAAEFE4FF07069BEFA8EFE99FAA9F99A
:10197800B9FA89F991FAA1F1A669B1FA81F106FAE1
:1019880009F9666902F4403206FA0CFC22FA08F2F8
:1019980003F0E04349EA0C0602FA0EF2FB40324338
:1019A8008B401343C0F88830D0F88C30A26A23F4F7
:1019B800F853013A43EA0223C0F88C309CE7E36FFE
:1019C800B3F1006F9AD1224D4FF07060D5F888209E
:1019D80090FAA0FC4FF0E041BCFA8CFCD5F88830B6
:1019E80091FAA1F647F6C07EB6FA86F69EFAAEFEE2
:1019F8004FF44038BEFA8EFE98FAA8F8B8FA88F87C
:101A080090FAA0F0B0FA80F091FAA1F1276A64691F
:101A1800B1FA81F102F0706207FA08F704FA0EF4DD
:101A280022FA0CF203F0E0433C438240F3402243A5
:101A38008B401343C5F8883060E7FEF7B1FE001B02
:101A480064287FF663AFDAE402B0BDE8F08700BF30
:101A5800003802407F4B03607F4BF0B5D3F88440D9
:101A680047F6C07595FAA5F12A462240B1FA81F1E8
:101A7800CA404260D3F884104FF4403292FAA2F47C
:101A88001140B4FA84F4E1400161D3F884104FF0B6
:101A9800706494FAA4F62140B6FA86F6F140C16063
:101AA800D3F884604FF0E04191FAA1F70E40B7FAFD
:101AB80087F7FE408660D3F8887095FAA5F547F653
:101AC800C0763E40B5FA85F5EE404661D3F88850B9
:101AD80092FAA2F61540B6FA86F6F5400562D3F8F2
:101AE800885094FAA4F405F07065B4FA84F425FAE1
:101AF80004F48461D3F8884091FAA1F104F0E04439
:101B0800B1FA81F124FA01F1C161D3F88C101F24D4
:101B180094FAA4F401F01F01B4FA84F4E14041629C
:101B2800D3F88C104FF4F85494FAA4F401F4F85153
:101B3800B4FA84F4E1408162D3F88C1092FAA2F2EC
:101B480001F44031B2FA82F221FA02F2C262D3F809
:101B58008C2002F44012C263D3F88C2002F44002B5
:101B680002649A6802F400024263D3F8902002F4F7
:101B780040324266D3F8902002F440228266D3F8BD
:101B8800902002F44012C266D3F8902002F440027A
:101B98000267D3F8902002F003024264D3F8902041
:101BA80002F00C028264D3F8902002F03002C26482
:101BB800D3F8902002F0C0020265D3F8902002F416
:101BC80040724265D3F8902002F440628265D3F8EF
:101BD800902002F44052C265D3F8902002F44042AB
:101BE8000266D3F8902002F040724267D3F8902042
:101BF80002F080628267D3F8902002F00062C26728
:101C0800D3F8902002F08052C0F88020D3F89020BA
:101C180002F00052C0F88420D3F88C2002F0007241
:101C2800C0F88820D3F88C2002F08062C0F88C209D
:101C38009A68196F02F4F81201F440710A430263BA
:101C4800D3F88C3013F0807318BF4FF08073836320
:101C5800F0BD00BFF1FFFF1C00380240B0F5002FB7
:101C68000ED1344BD3F88C2002F44012B2F5801F09
:101C78003FD011D9B2F5001F39D0B2F5401F2DE081
:101C8800B0F5801F53D12B4BD3F88C2002F44002BF
:101C9800B2F5800F2DD01CD8002A48D15A685B684D
:101CA800510254BF2449254903F03F03B1FBF3F324
:101CB8002049D1F88800D1F88820C2F38812C0F3EF
:101CC80003605A43B2FBF0F3D1F88C00C0F3042050
:101CD80029E0B2F5000F0AD0B2F5400F27D15B68B2
:101CE800164813F4800F144B08BF18467047144861
:101CF80070475A685B68520254BF0F490F4903F096
:101D08003F03B1FBF3F30B49D1F88400D1F88420E9
:101D1800C2F38812C0F303605A43B2FBF0F3D1F860
:101D28008C0000F01F000130B3FBF0F0704700207A
:101D3800704700BF003802400024F40000127A0007
:101D48000080BB00094910B50C6924F440740C618B
:101D58000C6944F440740C610C6944F001040C6192
:101D6800C0E90023BFF34F8F10BD00BF003C024005
:101D7800084B1A6922F440721A611A6942F4007217
:101D88001A611A6942F001021A610160BFF34F8FAC
:101D9800704700BF003C0240084B1A6922F44072A9
:101DA8001A611A6942F480721A611A6942F00102D2
:101DB8001A610180BFF34F8F704700BF003C02409B
:101DC800074B1A6922F440721A611A691A611A6972
:101DD80042F001021A610170BFF34F8F704700BFD4
:101DE800003C0240164BDA68920741BF15498A69E0
:101DF80042F020028A61DB68DB0641BF114A936921
:101E080043F0100393610E4BDA68900641BF0D4909
:101E18008A6942F008028A61DB68590641BF094AAB
:101E2800936943F004039361054BDA68120641BFD6
:101E380004498A6942F002028A61F222DA60704734
:101E4800003C02405C4B002070B506460846164927
:101E58000C7D012C24D001240C75144C256945F007
:101E680080752561256945F000752561F325E560D4
:101E780003240C700861A64214D8DFE806F00206B5
:101E88000A0ED1B2FFF79CFF0CE091B2FFF784FF76
:101E980008E01146FFF76CFF04E0FFF753FF01E08D
:101EA800022070BD002070BD5C4B0020003C024049
:101EB80070477047384B1A6922F0010270B51A61F1
:101EC8001A69364D22F002021A611A6922F0F802E4
:101ED8001A611A6922F4004222F004021A61DC68CD
:101EE80014F001042AD00122DA602B78DBB2022B2D
:101EF8001BD0032B1BD093421FD16B68013B6B6037
:101F08006E6856B1E868FFF7D3FFEC680134EC60FF
:101F1800297A204600F0C2F910E04FF0FF3420463D
:101F2800EC60FFF7C5FF2E7008E0002000E028698C
:101F38000024FFF7BDFF2C7000E00024164BDB687F
:101F480013F0F20F17D02B78144ADBB2022B08D00B
:101F5800032B08D0012B07D14FF0FF33D468D3608F
:101F680002E0002400E01469FFF73CFF2046FFF779
:101F7800A0FF00232B702B7803F0FF0153B9064B09
:101F88001A6922F080721A611A6922F000721A61C5
:101F9800024B197570BD00BF003C02405C4B00202D
:101FA800064B1A69002ABFBF054A5A6002F18832F7
:101FB8000020B4BF5A600120704700BF003C0240B7
:101FC80023016745034A136943F000431361002066
:101FD800704700BF003C0240064B5A69D20741BF18
:101FE800054A9A6002F1443200204CBF9A600120F1
:101FF800704700BF003C02403B2A1908034A536956
:1020080043F0010353610020704700BF003C0240C9
:10201800014B9869704700BF5C4B002038B5134BE3
:10202800002204469A61FEF7BBFB0546104AD368B6
:10203800DB030AD5621CF9D00CB9032038BDFEF7C2
:10204800AFFB401BA042F1D9F7E7D06810F0F200CF
:1020580003D0FFF7C7FE012038BDD36813F0010392
:102068001ABF0123D360184638BD00BF5C4B00205F
:10207800003C02402DE9F0411C4C9846237D012B81
:1020880007460E4615462DD001234CF250302375D5
:10209800FFF7C4FF10BB032F17D8DFE807F00207CC
:1020A8000C113046E9B2FFF78BFE0EE03046A9B2BC
:1020B800FFF772FE09E030462946FFF759FE04E0B3
:1020C80030462A464346FFF73DFE4CF25030FFF7B4
:1020D800A5FF074A136923F0010313610023237541
:1020E800BDE8F0810220BDE8F08100BF5C4B002014
:1020F800003C0240044A536943F0020353614CF226
:102108005030FFF78BBF00BF003C02400D4B1A69EF
:1021180022F440721A6103291A6902D142F400427A
:1021280004E0022902D142F4004201E042F0040234
:102138001A611A6942F4803242EA00201861BFF33A
:102148004F8F7047003C0240F8B53C4E337D012B61
:10215800044670D023680120DB07307515D5636805
:10216800A56883424CF2503008D1FFF757FF60B999
:10217800334A536923EA0505556106E0FFF74EFF28
:1021880018B92F4B5A6915435D6123689F0708D515
:102198004CF25030E568FFF741FF10B9294BEDB21A
:1021A8001D7023685D071BD54CF250306569FFF739
:1021B80035FFA8B9224F05F0F00105F000420A43A7
:1021C8007B6905F08041114305F000520A4305F090
:1021D800805523F07043154323F0F0031D437D61C0
:1021E8002268110707D51649207C4B6923F00C0398
:1021F80003434B610020D2060BD54CF25030A56941
:10220800FFF70CFF28B90E4A93691B0C1B042B43DC
:10221800936123689B060BD54CF25030E469FFF7B5
:10222800FDFE28B9064A93699BB243EA04439361C9
:1022380000233375F8BD0220F8BD00BF5C4B0020B9
:10224800003C0240153C02403F2303600F4B104AFC
:1022580059690A400F4982600A78D2B2AA2A04D082
:102268000A78CC2A0CBFCC225522C26059690A4A86
:102278000A4042615A6902F00C0202619A6992B2FC
:1022880082619B691B0CC361704700BF003C024020
:102298000000FF0F153C0240F00000F051B1012989
:1022A80006D002290CBF4FF400714FF4407101E0D1
:1022B8004FF48071104B1A6922F440721A611A693E
:1022C800114319611A690B2822F0F8021A6188BFB4
:1022D8000430F82292FAA2F21969B2FA82F241F0B5
:1022E80002019040084318611A6942F480321A6169
:1022F800BFF34F8F704700BF003C02402DE9F0410B
:10230800234E337D012B054688463ED001234CF2EF
:1023180050303375FFF782FE044688BB4FF0FF3319
:10232800C8F800302B68012B10D1287C6968FFF7AA
:10233800EDFE4CF25030FFF771FE164A136923F494
:10234800004323F004030446136119E0AF68AA6848
:10235800EB6813449F4213D23846297CFFF79EFF4F
:102368004CF25030FFF75AFE0A4A136923F0FA0379
:10237800136118B1C8F80070044601E00137E6E7B8
:10238800002333752046BDE8F0810220BDE8F081C6
:102398005C4B0020003C0240154B197D012910B50B
:1023A800024623D013490869012440F080701C7547
:1023B8000861086940F000700861F320C86011687E
:1023C800A142116906D102201870C8B25168FFF7FE
:1023D8009DFE09E0D0681C70C9B258609068D8604A
:1023E80019729068FFF75AFF002010BD022010BD37
:1023F8005C4B0020003C02402DE9F3410F680022AD
:102408000123934003EA07059D4240F0D2804C68BF
:1024180024F0100CBCF1020F14D14FEAD20E00EBDD
:102428008E0E02F00706DEF82030B6004FF00F08D7
:1024380008FA06F823EA08080B69B34048EA0303D8
:10244800CEF820304FEA420E0323066803FA0EF353
:10245800DB4303EA060804F0030606FA0EF60CF15D
:10246800FF3C48EA0606BCF1010F066011D88668F1
:1024780003EA060CCE6806FA0EF64CEA06068660F3
:10248800466826EA050CC4F3001696404CEA060690
:102498004660C66803EA060C8B6803FA0EF64CEA37
:1024A8000603C360E30040F18480454B5E6C46F44C
:1024B80080465E645B6C22F0030606F1804603F4F6
:1024C800804306F59C36019302F0030C019BD6F875
:1024D80008E04FEA8C0C0F2303FA0CF32EEA030EE4
:1024E800384B984226D003F58063984224D003F5F0
:1024F8008063984222D003F58063984220D003F588
:10250800806398421ED003F5806398421CD003F57F
:10251800806398421AD003F58063984218D003F577
:102528008063984216D003F5806398420CBF092354
:102538000A2310E000230EE001230CE002230AE046
:10254800032308E0042306E0052304E0062302E051
:10255800072300E0082303FA0CF343EA0E03DFF82D
:1025680068E0B360DEF80030EE4314F4803F14BF37
:102578002B433340CEF80030DEF80430DFF848E073
:1025880014F4003F14BF2B433340CEF80430DEF878
:10259800083014F4801F14BF2B433340CEF80830A2
:1025A800DEF80C30A40254BF06EA03051D43064BAF
:1025B800DD600132102A7FF423AF02B0BDE8F0815C
:1025C8000038024000000240003C01402DE9F04183
:1025D80000224FF0010C0CFA02F303EA010E9E45AB
:1025E8007DD1032302FA0CF5046803FA05F5ED43DF
:1025F80022FA03F72C4000EB8707046002F0070873
:102608003C6A0F264FEA880806FA08F824EA080404
:102618003C628768DFF8DC802F40876047686FEA94
:102628000E0427404760C7683D40C56022F0030597
:1026380005F1804505F59C3502EA0307D5F808E061
:10264800BF00BE40404506EA0E0E25D008F580685A
:10265800404523D0DFF8A0C0604521D00CF5806C40
:10266800604528D0214B98421CD003F580639842DE
:102678001AD003F58063984218D003F58063984216
:1026880016D003F58063984214D003F5806398420E
:102698000CBF09230A230EE000230CE063460AE07E
:1026A800022308E0042306E0052304E0062302E0F1
:1026B800072300E00823BB409E4510D1AB6823EAFE
:1026C80006060B4BAE601D6825401D605D68254001
:1026D8005D609D6825409D60DD682C40DC600132AE
:1026E800102A7FF476AFBDE8F08100BF00100240E9
:1026F800003C014000000240000802400369194202
:1027080014BF01200020704702B909048161704795
:10271800436959404161704782B04FF48033019357
:10272800019B0B430193019BC361C161019BC36181
:10273800C3690193C06980F48030C0F3004002B0DF
:102748007047704708B5044B5969084202D0586170
:1027580003F015F908BD00BF003C01400368DAB278
:1027680023F47F7323F003031821103AB2FBF1F22C
:102778000449032A88BF0433895C8365C165806D79
:10278800704700BF7090000870B50446FEF708F85F
:102798000546002C64D0002384F8343022680223D4
:1027A80084F83530136823F0010313602068036848
:1027B800D90708D5FDF7F4FF401B0528F6D92023D3
:1027C8006365032051E00368294AA168A5691A4096
:1027D80063681943E36819432369194363690B4321
:1027E800E1692B430B43216A0B431343626A042AB2
:1027F80001BFE16A266B31430B4303604369042A36
:1028080023F0070343EA02031CD1A26AE16A1343D7
:10281800C1B125B9012A0BD012D3022A0FE0B5F5B0
:10282800005F09D1032A0DD8DFE802F01C0A1C0258
:10283800B1F1C07F06D115E0022A13D9032A01D1CC
:10284800CA010FD443612046FFF788FFE26D3F239A
:102858009340836000200123606584F8353070BDA3
:10286800012070BD40236365012084F8350070BDE8
:102878003F8010E038B50546E8B190F83540E4B23D
:10288800022C1AD003681A6822F001021A60002488
:1028980021221C605C609C60DC601C615A61FFF74F
:1028A8005DFFEA6D3F23934083606C6585F8344093
:1028B80085F8354001E0012038BD204638BD30B5E7
:1028C80090F83440012C22D0012480F8344090F84C
:1028D8003540012C4FF000054FF0020415D180F867
:1028E800354004684565256825F4802525606360C2
:1028F8008368402B0BBFA260A160E160E26023689F
:1029080043F001032360002030BD80F834500220DA
:1029180030BD70B590F83440866D012C35D0012457
:1029280080F8344090F83540012C4FF000054FF006
:10293800020428D180F8354004684565256825F4E7
:102948008025256063608368402B0EBFA260A1606C
:10295800E260C26D08BFE1603F239340B360236823
:1029680043F016032360636943F080036361036CDB
:102978001BB1236843F008032360236843F0010375
:102988002360002070BD80F83450022070BD70B5FF
:102998000446856DFDF704FF94F83530022B064692
:1029A80006D080236365002384F83430012070BD8D
:1029B80023681A6822F016021A605A6922F0800207
:1029C8005A61226C0AB9A26C1AB11A6822F008027C
:1029D8001A601A6822F001021A602368186810F059
:1029E80001000DD0FDF7DCFE801B0528F5D920235A
:1029F80063650320002384F8343084F8350070BD03
:102A0800E26D3F239340AB60012384F8340084F8DF
:102A1800353070BD90F83530022B01BF05230268B0
:102A280080F83530136815BF802323F00103436510
:102A3800136014BF0120002070472DE9F8430446B5
:102A48000D469046FDF7ACFE94F83530022B8146D2
:102A580005D080236365002384F8343006E02368BA
:102A68001B68D90505D54FF4807363650120BDE85F
:102A7800F883E36D0DB9202700E01027A66D9F406D
:102A880033683B4237D1636DDA0734D4B8F1FF3F7E
:102A980013D0B8F1000F0AD120236365002384F80E
:102AA8003430012384F835300320BDE8F883FDF77E
:102AB80077FEC9EB00004045EED8E26D3368082187
:102AC800914019421FBF606D40F001006065B16020
:102AD8001B49914019421FBF606D40F002006065BC
:102AE800B1601849914019421FBF626D42F004025B
:102AF8006265B160C5E7636D8BB1636DDB070ED5A9
:102B08002046FFF744FFE26D30239340B360012075
:102B1800002384F8343084F83500BDE8F883E26D8A
:102B280045B930239340B360012384F8345084F8C6
:102B3800353002E010239340B3600020BDE8F883ED
:102B48000100800004008000F7B5002301935A4B70
:102B5800856D1F68C36D2E6808229A40324204466C
:102B68000CD001680868400708D5086820F0040000
:102B78000860AA60626D42F0010262654F4A9A409D
:102B8800324208D021684969090641BFAA60626DCE
:102B980042F0020262654A4A9A40324208D02168ED
:102BA8000968880741BFAA60626D42F00402626545
:102BB80010229A40324217D023681968090713D5A2
:102BC800AA601A68500304D51B68190308D5A36CBA
:102BD80007E01A68D2055EBF1A6822F008021A6078
:102BE800236C0BB120469847E16D20228A4032427F
:102BF8003CD023681868C60638D5AA6094F83520F2
:102C0800052A1A6819D122F016021A605A6922F0A8
:102C180080025A61226C0AB9A26C1AB11A6822F0B1
:102C280008021A603F238B40AB60002384F83430DD
:102C3800012384F83530236D38E0500304D51B6830
:102C480019030FD4636C0EE01A6812F4807201BF86
:102C5800196821F010011960012304BF84F8342099
:102C680084F83530E36B0BB120469847636D03B3A6
:102C7800636DDA0719D50523226884F8353013689F
:102C880023F0010313604FF41653B7FBF3F7019BCE
:102C98000133BB42019302D81368DB07F7D4002342
:102CA80084F83430012384F83530E36C0BB12046C6
:102CB800984703B0F0BD00BF080000200100800065
:102CC8000400800090F83430012B10B51ED090F825
:102CD800354001239C4280F8343012D105290FD8A1
:102CE800DFE801F0030507090B0DC26308E0026481
:102CF80006E0426404E0826402E0C26400E0026527
:102D08000023002280F83420184610BD022010BD90
:102D180090F83430012B27D090F8352001239A42BF
:102D280080F834301BD10023062917D8DFE801F0DA
:102D38000406080A0C130E00C3630DE003640BE0DD
:102D4800436409E0836407E0C36405E0C363036484
:102D580043648364C3640365002300E00123002205
:102D680080F83420184670470220704790F83500E4
:102D78007047406D704700BFF0B50468244E656C1D
:102D880096FAA6F6059FB6FA86F605F040453D4345
:102D9800B3402B4363644368E263B3F5403F35D1E6
:102DA800806801F07F4501F47F0301F47F42C9B2D6
:102DB80020B943EA050040EA020302E0012802D1F3
:102DC8001343194320E0022807D1D80C920AC00205
:102DD80040EA421242EAD10116E003280AD1D80C8F
:102DE800D20A800240EA421242EAD101EB0F41EADC
:102DF800C33109E0180D120B000240EA021242EA40
:102E080011112B0F41EA0331A163F0BDE160F0BD60
:102E18000000FF3F704710B50446002840D090F8E6
:102E2800513003F0FF021BB980F85020FFF7F2FF82
:102E3800022384F8513023681A6822F4403162680A
:102E48000A431A605A6B22F00701A2680A435A63C0
:102E58001A6CE16822F47F5222F03F020A431A6496
:102E6800596B4FF4801090FAA0F02269B0FA80F004
:102E780021F4801182400A435A63596B4FF40010C1
:102E880090FAA0F06269B0FA80F021F40011824053
:102E98000A435A6300200123606584F8513010BD4D
:102EA800012010BD704773B590F85040012C0546BD
:102EB8004FF002040ED080F851400126069C80F89D
:102EC80050600094FFF758FF2A6813683343136073
:102ED800002000E0204602B070BD73B590F8504065
:102EE800012C05464FF0020412D080F8514001260B
:102EF800069C80F850600094FFF73EFF2B681A6824
:102F080042F40C521A601A6832431A60002000E03A
:102F1800204602B070BD73B590F85040012C0546AC
:102F28004FF0020412D080F851400468012680F85E
:102F380050606261079A00921A46069BFFF71CFFD1
:102F48002A68136833431360002000E0204602B06B
:102F580070BD73B590F85040012C05464FF002043F
:102F680016D080F851400468012680F850606261EC
:102F7800079A00921A46069BFFF7FEFE2B681A680E
:102F880042F40C521A601A6832431A60002000E0BA
:102F9800204602B070BD026838B5136823F00503F7
:102FA80043F0040313600446FDF7FAFB0546236863
:102FB800186810F0010010D0FDF7F2FB401BB0F5C7
:102FC8007A7FF4D9636D43F02003636503200023FF
:102FD80084F8510084F8503038BD1A6822F40C5235
:102FE8001A60012384F8513084F8500038BD026813
:102FF80038B5136823F0030343F002031360044653
:10300800FDF7CEFB054623681A68910708D51868AE
:1030180010F0010015D0052384F85130002038BD88
:103028001A68D207F3D5FDF7BBFB401BB0F57A7FD2
:10303800E9D9636D032043F02003636584F85100E8
:1030480038BD1A6822F002021A6038BD03681A688F
:1030580002F00302032A04BF022280F851201A68F2
:1030680022F003021A600020704790F85030012BBC
:103078004FF0020311D0012280F8513080F850201F
:10308800036821B95A6A42F020025A6203E0DA69F9
:1030980042F02002DA610020704718467047F0B508
:1030A80085B004AC04E90E0090F850300A9F019DE9
:1030B800029A039C012B4FF002033BD0012180F8B8
:1030C800501080F851304FF47F410368C7B91D6331
:1030D8005D6A91FAA1F11026B1FA81F196FAA6F685
:1030E8008C40B6FA86F6B240224325F47F4424F099
:1030F800100414435C625A6A42F020025A6217E0D4
:10310800DD62D86991FAA1F11025B1FA81F195FA39
:10311800A5F58C40B5FA85F520F47F41AA402243F5
:1031280021F010011143D961DA6942F02002DA6115
:10313800002000E0184605B0F0BDF0B585B004AC3D
:1031480004E90E0090F850300A9F019D029A039CF2
:10315800012B4FF0020343D0012180F8501080F872
:1031680051304FF47F410368E7B91D635D6A91FAF6
:10317800A1F11026B1FA81F196FAA6F68C40B6FABA
:1031880086F6B240224325F47F4424F01004144309
:103198005C621A6842F464521A605A6A42F0200269
:1031A8005A621BE0DD62D86991FAA1F11025B1FAE3
:1031B80081F195FAA5F58C40B5FA85F520F47F41A3
:1031C800AA40224321F010011143D9611A6842F440
:1031D80064521A60DA6942F02002DA61002000E0E5
:1031E800184605B0F0BD03681A6842F0040270B5CD
:1031F80001291A60044614BF03F1240503F11C05D4
:10320800FDF7CEFA0646286810F0200010D0FDF72A
:10321800C7FA801BB0F57A7FF5D9636D43F02003B8
:1032280063650320002384F8510084F8503070BD92
:103238002268136823F464531360012384F851301F
:1032480084F8500070BD10B5044608B9012010BDBF
:10325800144B1B6B190210D42046FFF723FE23687A
:103268000020186018619861D861586258636065D9
:1032780084F8500084F8510010BD0368196811F0F3
:10328800010102D0FFF787FE08E05A6A920603D4CC
:10329800DB699B06E0D50121FFF7A5FF0028DBD0FD
:1032A800D4E700BF0038024003681A6842F00202FF
:1032B80070B501291A60054614BF03F1240403F10F
:1032C8001C04FDF76DFA06462B681A68910708D5A5
:1032D800206810F0200015D0052385F85130002013
:1032E80070BD22689206F3D5FDF75AFA801BB0F537
:1032F8007A7FE9D96B6D032043F020036B6585F86D
:10330800510070BD1A6822F002021A6070BD03688D
:103318001A6819B9920709D55A6A02E0910705D5C2
:10332800DA69920644BF022280F851201A6822F016
:1033380002021A600020704773B5002301930368E6
:103348001B68DB0704460D4604D42368DA69960631
:1033580027D533E0FDF724FA064623685A68920712
:10336800F3D45A680192019A12F0210F0FD0019AF2
:10337800950642BF626D42F002026265019AD0076B
:1033880042BF626D42F00102626521223BE0691C86
:10339800E4D0002D41D0FDF703FA801BA842DCD908
:1033A8003BE05B6A9B0609D4236812229A600020DE
:1033B800012384F8513084F8500040E0FDF7F0F91B
:1033C80006463AE0691C27D15A68D206ECD45A68F6
:1033D8000192019A12F0290FF4D0019A160742BF00
:1033E800626D42F004026265019A950642BF626D01
:1033F80042F002026265019AD00742BF626D42F054
:103408000102626529229A60042384F8513000235E
:1034180084F85030012012E055B9636D43F0200361
:1034280063650320002384F8510084F8503006E0D7
:10343800FDF7B6F9801BA842EFD82368C4E702B0AD
:1034480070BD70477047036870B55E681D68F20705
:10345800044614D5E90512D51A6822F480721A6058
:10346800426D42F00102426501229A60042380F80D
:103478005130002380F85030C36903B19847B20631
:1034880016D5AB0414D523681A6822F400521A60C2
:1034980020229A60636D43F002036365042384F875
:1034A8005130002384F85030E3690BB12046984727
:1034B800300716D5290514D523681A6822F4006246
:1034C8001A6008229A60636D43F00403636504235D
:1034D80084F85130002384F85030E3690BB120465A
:1034E800984772070BD56B0509D523681A6822F42B
:1034F80080621A6004229A602046FFF7A2FFB00794
:1035080014D5A90512D523681A6822F400721A6026
:1035180002229A60636D6365012384F851300023A9
:1035280084F85030A3690BB120469847F20613D5AA
:10353800EB0411D523681A6822F480521A6010220D
:103548009A60636D6365012384F85130002384F821
:1035580050302046FFF776FF70BD90F85030012BB1
:10356800F0B54FF0020355D080F85130182303FB13
:103578000103012280F850205D6A4FF4403E9EFA14
:10358800AEFE4FF48017BEFA8EFE97FAA7F79C6A34
:10359800B7FA87F704FA0EF21C6B03F1280603F159
:1035A800300E04FA07F342EA03042C434FF40013E5
:1035B80093FAA3F3DEF80420B3FA83F3093D9A40A3
:1035C800012D44EA02040368726804D802F07F42BD
:1035D800224309B308E04FF07F4696FAA6F6B6FAFA
:1035E80086F6B240224319B3DE69154C34402243B3
:1035F800DA61182202FB0101012D0A6A1A619EBFD5
:10360800CA6A22F07F421A62012380F851300023EF
:1036180080F850301846F0BD5C6A094921400A43D9
:103628005A62026A9A61C26A22F07F429A62EBE7A2
:103638005C6A034921400A435A62026A9A61E3E7D5
:10364800F0FFCC00F0B585B004AC04E90E0090F8AA
:10365800502001A9012A4AC94FF002023AD0012498
:1036680080F850400A9C80F8512005684FF47F424A
:10367800A4B929636C6A92FAA2F21027B2FA82F20C
:1036880097FAA7F7B7FA87F79640BB4024F47F412B
:10369800334321F010011943696213E0E962E969D3
:1036A80092FAA2F21024B2FA82F294FAA4F49640A2
:1036B800B4FA84F421F47F42A340334322F0100289
:1036C8001A43EA61012380F85130002380F8503012
:1036D800184600E0104605B0F0BDB1F5803F14D2A1
:1036E80090F85030012B4FF0020310D080F8513081
:1036F800036899641A6842F480621A60012380F8AA
:103708005130002380F8503001E0012070471846FE
:10371800704790F85030012B4FF002030CD002682C
:1037280080F85130D36C43F00103D364012380F84F
:103738005130002380F850301846704790F85030C8
:10374800012B4FF002030CD0026880F85130D36C83
:1037580023F00103D364012380F85130002380F85B
:1037680050301846704790F85030012B10B54FF084
:10377800020314D0046880F85130E36C4FF47F42A0
:1037880092FAA2F223F47F43B2FA82F291401943EB
:103798000123E16480F85130002380F85030184646
:1037A80010BD90F851007047406D7047044B1A6A7D
:1037B80042F080521A621A6A22F080521A627047E6
:1037C80000380240024A136843F48073136070475C
:1037D80000700040024A136823F480731360704736
:1037E8000070004019490B6823F0E0020368134396
:1037F8000B60174B5A6822F480325A601A6822F418
:1038080080321A609A6822F480329A60DA6822F468
:103818008032DA604268D10342BF196841F48031CE
:103828001960900342BF596841F480315960D1074B
:1038380041BF07498B6843F480338B60930741BFCE
:10384800034AD36843F48033D36070470070004064
:10385800003C0140024A136843F0100313607047AC
:1038680000700040024A136823F010031360704789
:1038780000700040064AD16810B500F47C5421431A
:10388800D160936823EA040343EA9010906010BD66
:1038980000700040024AD36823EA0000D0607047F5
:1038A80000700040064A1369012923F004031361DC
:1038B80001D130BF704740BF20BF20BF704700BF55
:1038C80000ED00E00B4A136823F0030318430A4B8A
:1038D80010601A69012942F004021A6101D130BF4F
:1038E80002E040BF20BF20BF1A6922F004021A611B
:1038F800704700BF0070004000ED00E0054A136803
:1039080043F002031360044A136943F0040313618C
:1039180030BF70470070004000ED00E0704710B500
:10392800044C6369DB0304D5FFF7F8FF4FF48033D9
:10393800636110BD003C0140024A136943F0020371
:103948001361704700ED00E0024A136923F0020397
:103958001361704700ED00E0024A136943F0100359
:103968001361704700ED00E0024A136923F0100369
:103978001361704700ED00E00D4B5A6842F4007285
:1039880010B55A605A6842F480725A60FCF708FF12
:103998000446074B5B681B0707D4FCF701FF001BB5
:1039A800B0F57A7FF5D9032010BD002010BD00BF07
:1039B800007000400D4B5A6822F4007210B55A602E
:1039C8005A6842F480725A60FCF7EAFE0446074BD4
:1039D800586810F0080007D0FCF7E2FE001BB0F5AD
:1039E8007A7FF4D9032010BD10BD00BF00700040DD
:1039F800024A136843F40073136070470070004074
:103A0800024A136823F40073136070470070004083
:103A1800024A136843F40063136070470070004063
:103A2800024A136823F40063136070470070004073
:103A3800024A136843F480631360704700700040C3
:103A4800024A136823F480631360704700700040D3
:103A5800194B1A6C13B542F080521A641B6C174A42
:103A680003F080530193019B136843F48033136080
:103A7800FCF796FE0446114B5A68D20307D4FCF7AC
:103A88008FFE001BB0F57A7FF5D9032012E01A6883
:103A980042F400321A60FCF783FE0446074B5B6869
:103AA8009B0306D4FCF77CFE001BB0F57A7FF5D9A2
:103AB800EBE7002002B010BD003802400070004063
:103AC800194B1A6C13B542F080521A641B6C174AD2
:103AD80003F080530193019B136823F400331360B0
:103AE800FCF75EFE0446114B5A68920307D5FCF7B3
:103AF80057FE001BB0F57A7FF5D9032012E01A684B
:103B080022F480321A60FCF74BFE0446074B5868D3
:103B180010F4803006D0FCF743FE001BB0F57A7F26
:103B2800F4D9EAE702B010BD003802400070004046
:103B38001F4B1A6C73B542F080521A641B6C03F069
:103B480080530193019B1B4B5A6842F440225A60F0
:103B58001A6842F440221A6005460C46FCF720FE1B
:103B68000646144B5A6802F44022B2F5402F07D19A
:103B7800FCF716FE801BB0F57A7FF2D9032015E01A
:103B8800186820F4406020F00300284318600A4BAE
:103B98001A69012C42F004021A6101D130BF00E019
:103BA80020BF1A6922F004021A61002002B070BD19
:103BB800003802400070004000ED00E0024B186839
:103BC80000F44040704700BF00700040284B37B5F4
:103BD8001A6C42F080521A641A6C02F080520092F9
:103BE800009A9A6802F00C02082A04463DD01A6826
:103BF80022F080721A60FCF7D3FD05461C4B1A6848
:103C0800910106D5FCF7CCFD401B0228F6D903200C
:103C18002CE0184A106820F44040204310601268D5
:103C280002F440420192019A1A6842F080721A60C6
:103C3800FCF7B6FD04460E4B1B689A0105D4FCF749
:103C4800AFFD001B0228F6D9E1E7FCF7A9FD044601
:103C5800084B5B685B0406D4FCF7A2FD001BB0F5BB
:103C68007A7FF5D9D3E7002000E0012003B030BD0A
:103C7800003802400070004010B501684B6903F439
:103C8800E023B3F5A02F1AD0B0F86A20BAB1446B7C
:103C9800436E402C06D1846A34B95C1C44661B7898
:103CA800CB6108E0802C02D853F8024B01E053F8AE
:103CB800044BCC614366013AA0F86A20DEE710BDE8
:103CC800026B012914BF01230923082A426805D180
:103CD80022F00201012908BF43F01003023A012A29
:103CE80094BF43F0600043F00400704701680E4B36
:103CF80041F658321B68B3FBF2F20B6823F48033A9
:103D080092000B6012F1FF3207D2D0F8803043F0F6
:103D18004003C0F88030032070470B6813F48033E9
:103D2800F0D11846704700BF08000020704770B5F2
:103D38000446002800F0BD8090F87D3003F0FF02B3
:103D48001BB980F87C2001F0F3FE022384F87D3053
:103D58002046FFF7CBFFE368012B04D0022B0CBFF2
:103D68002023002300E01023A268022A09D0032A96
:103D780005D0012A0CBF4FF48065002503E043F00D
:103D880001034FF4006522684B498A4202D04B4830
:103D9800824201D14A4800E04A480360E3691BB304
:103DA8008A4202D0454B9A4204D14FF40020FDF7D5
:103DB80055FF00E000202368434A934202D0203296
:103DC800934203D14FF48010FDF748FFE3690A22BC
:103DD8005B025043B0FBF3F0B0FBF2F302FB1300BD
:103DE800092808BF01332362626832F00203E36BDB
:103DF80005D1012B0CBF00214FF4007104E0012B09
:103E08000CBF4FF400710021236830481E68304011
:103E1800186018680243206B0243606B0243A06B72
:103E28000243606A02432069104362690243206AC0
:103E380042EA005215430D431D605A6822F460425D
:103E480022F00F025A605968A2691143A26A11430D
:103E5800E26A0A435A6099681D4A0A409A6099685A
:103E6800226D1143A26C1143E26C1143226C013A9A
:103E78001143626C013A41EA02229A60D9684FF212
:103E880020020A40DA60D968626D1143A26D0A43C4
:103E9800216E42EA0141E26D013A41EA0222DA600A
:103EA80000200123C4F8800084F87C0084F87D3069
:103EB80070BD012070BD00BF045801402458014066
:103EC80000580140005C0140045C014010C005FF3F
:103ED8000080F8FF30B5042900F29180DFE801F096
:103EE8000303035555000024046384634468C365D1
:103EF80034F0020418BF0124C4634FF4803484648E
:103F08004FF6FF7404660024446513F0010476D16B
:103F18004D1E012D8BBFC4644FF400354FF480242F
:103F2800C5640465032A6AD8DFE802F0020A172587
:103F380080225B0842635A011B01026443644AE021
:103F48005B0880229C0102294FEA43134263046400
:103F5800436482654FD1102315E0C0225B08426399
:103F68009A015B01436402294FF080030264836570
:103F780041D1082307E0E0225B0842639A015B0114
:103F88000264436435E0436535E04568C36535F050
:103F980002054FF0000406BF0125C563C4634FF452
:103FA80000350429046384638464C56444654FF45C
:103FB80080254FF6FF740CBF01210D2105650466AD
:103FC8004164032A1BD8DFE802F002080E108022A1
:103FD8001B014263036440230CE080225B014263BF
:103FE8000364826507E0C02200E0E0225B014263CF
:103FF800036480238365BDE83040FFF798BE012045
:1040080030BD704738B50546D0B1022380F87D3001
:10401800036800244FF0FF321C619A61FFF766FEC7
:104028002A68536843F0080328465360FFF7E9FFFE
:10403800C5F8804085F87C4085F87D40204638BD2D
:10404800012038BD2DE9F0410446884617461D4633
:10405800FCF7A6FB0646B8F1000F72D0002F70D00F
:1040680094F87D30DBB2012B6ED194F87C20012AC4
:104078006AD084F87C30122384F87D300023C4F899
:1040880080302368A4F868701B68A4F86A70DA03A3
:10409800C4F864801CD42046FFF7EEFD226813683C
:1040A80043F48033136013E02268536903F4E02378
:1040B800B3F5A02F1BD0616B636E40290DD1A16AA7
:1040C80069B9591C61661B78D3610138A4F86A0084
:1040D800B4F86A000028E7D12CE0802902D833F828
:1040E800021B01E053F8041BD1616366EDE76B1C0A
:1040F800EED0CDB9D4F8803043F04003C4F8803016
:1041080023684FF0FF329A612046FFF7EFFD2268DF
:10411800536843F0080353600120002384F87D00AE
:1041280084F87C30BDE8F081FCF73AFB801BA8429C
:10413800CED9DFE7012384F87D3084F87C00BDE820
:10414800F0810120BDE8F0810220BDE8F0812DE971
:10415800F0410446884617461D46FCF721FB0646F3
:10416800B8F1000F6FD0002F6DD094F87D00C0B269
:1041780001286BD194F87C30012B67D0222384F876
:104188007D300023C4F88030236884F87C001A68E6
:10419800C4F86480D203A4F86870A4F86A7018D4CC
:1041A8001A6842F480321A6013E021684B6913F4EC
:1041B800E02F1ED0636B626E402B0FD1A36A7BB9D0
:1041C800531C6366CB691370B4F86A30013BA4F8DA
:1041D8006A30B4F86A000028E7D12DE0802B03D8B4
:1041E800CB6922F8023B02E0CB6942F8043B6266E5
:1041F800EAE76B1CEDD0CDB9D4F8803043F040032A
:10420800C4F8803023684FF0FF329A612046FFF7E8
:104218006DFD2268536843F00803536001200023B2
:1042280084F87D0084F87C30BDE8F081FCF7B8FAAA
:10423800801BA842CDD9DFE7012384F87D3084F8BC
:104248007C00BDE8F0810120BDE8F0810220BDE8D6
:10425800F08110B5044600293CD0002A3AD090F8E5
:104268007D30DBB2012B37D190F87C00012833D0A8
:1042780084F87C300023C4F88030122384F87D3021
:10428800636B6166402BA4F86820A4F86A2003D108
:10429800A36A1BB9114B04E0802B01D8104B00E036
:1042A800104BA3672046FFF7E7FC20460121FFF7E4
:1042B80007FD23681A69104318611A68D20358BFAA
:1042C8001A684FF000005CBF42F480321A6084F82C
:1042D8007C0010BD012010BD022010BDE146000881
:1042E800A74600086D46000810B50446002939D0D5
:1042F800002A37D090F87D30DBB2012B34D190F80A
:104308007C00012830D084F87C300023C4F8803049
:10431800222384F87D30636B6166402BA4F8682003
:10432800A4F86A2003D1A36A1BB9104B04E0802BC0
:1043380001D80F4B00E00F4BA36720460121FFF780
:10434800BFFC23681A69104318611A68D20358BF62
:104358001A684FF000005CBF42F480321A6084F89B
:104368007C0010BD012010BD022010BDD9470008F7
:104378009D4700086147000890F87C30012B1FBF5B
:104388000268136823F4003313601DBF002380F80C
:104398007C3018460220704790F87C30012B13D0EF
:1043A800012380F87C3003681A6842F400321A60EE
:1043B8001A68D2035EBF1A6842F480321A6000237A
:1043C80080F87C30184670470220704790F87C309F
:1043D800012B10B5044620D00268012380F87C30F8
:1043E8001368C06E23F40033136010B9206F30B91E
:1043F80009E0FEF7CCFA0028F8D0012010BDFEF73E
:10440800C6FA0028F9D12046FFF770FC01230020E6
:1044180084F87D3084F87C0010BD022010BD38B5CA
:1044280090F87C30012B04462FD0012380F87C3093
:1044380003681A68920314D4236800254FF0FF32EA
:104448001D6120469A61FFF751FC2268536843F0CA
:1044580008035360012384F87D3084F87C50284693
:1044680038BD1A68C06E22F400321A6010B9206F85
:1044780030B9E1E7FEF78BFA0028F8D0012038BD03
:10448800FEF785FA0028D7D0F8E7022038BDF8B53E
:1044980004461346002940D0002B3ED090F87D609A
:1044A800F6B2012E3BD190F87C00012837D0E06E9F
:1044B80084F87C6000271222C4F8807084F87D207C
:1044C800184A6166A4F86830A4F86A300264164A8B
:1044D800C263164AC264226807651C32FEF719FADD
:1044E800054618B184F87C70354619E026683368AB
:1044F800DB035EBF336843F480333360204600211A
:10450800FFF7DEFB336918433061336843F4003347
:104518003360002384F87C3002E0012500E00225A6
:104528002846F8BD554700081B4700085D480008A5
:10453800F8B5134604460A46002940D0002B3ED061
:1045480090F87D60F6B2012E3BD190F87C100129DD
:1045580037D000272221C0F8807080F87C6080F86E
:104568007D104266A0F86830A0F86A30006F1649DE
:1045780001641649C1631649C164216807651C3185
:10458800FEF7C7F9054618B184F87C70354619E07E
:1045980026683368DB035EBF336843F480333360D7
:1045A80020460021FFF78CFB3369184330613368DC
:1045B80043F400333360002384F87C3002E00125A3
:1045C80000E002252846F8BD5148000817480008B1
:1045D8005D48000890F87D305BB103685A6822F0A6
:1045E80060025A605A6841F0200111435960002066
:1045F80070470120704790F87D3033B102685368E6
:1046080023F060035360002070470120704790F842
:104618007D3030B5ABB103685C6824F4FC545C6051
:104628004FF4FC5494FAA4F45D68B4FA84F4A240FC
:104638002A435A601A69416742F002021A6100204F
:1046480030BD012030BD90F87D3043B101680A6962
:10465800002322F0020243670A61184670470120CE
:104668007047704738B5B0F86A30056804466BB9CA
:104678000121FFF725FB2B6923EA000001232861AC
:1046880084F87D302046FFF7ECFF38BD426E013BD1
:1046980052F8041BE9614266A0F86A3038BD38B5A3
:1046A800B0F86A30056804466BB90121FFF708FBCA
:1046B8002B6923EA00000123286184F87D30204615
:1046C800FFF7CFFF38BD426E013B32F8021BE961AC
:1046D8004266A0F86A3038BD38B5B0F86A30056867
:1046E80004466BB90121FFF7EBFA2B6923EA0000B6
:1046F8000123286184F87D302046FFF7B2FF38BDDA
:10470800426E511C41661278EA61013BA0F86A309A
:1047180038BD38B50368846B196811F4807110D1FD
:104728002568A4F86A102B6823F400332B60204610
:10473800FFF7C6FA2B6923EA00000123286184F8F1
:104748007D302046FFF78DFF38BD704708B5806B78
:10475800FFF7FBFF08BD704738B50568436EEA6987
:1047680043F8042B4366B0F86A30013B9BB2044619
:10477800A0F86A306BB90121FFF7A2FA2B6923EA86
:10478800000001232861AB61204684F87D3001F0E8
:10479800EBFA38BD38B50568436EEA6923F8022B91
:1047A8004366B0F86A30013B9BB20446A0F86A3011
:1047B8006BB90121FFF784FA2B6923EA0000012372
:1047C8002861AB61204684F87D3001F0CDFA38BD10
:1047D800436E5A1C10B542660268D2691A70B0F866
:1047E8006A30013B9BB20446A0F86A3073B90121D4
:1047F800FFF766FA23681A6922EA000001221861A5
:104808009A61204684F87D2001F0AEFA10BD38B5D3
:104818000368846B196811F4807110D125682B68BE
:1048280023F400332B602046A4F86A10FFF748FAF7
:104838002B6923EA00000123286184F87D30204693
:1048480001F092FA38BD704708B5806B01F070FA34
:1048580008BD704710B5846BD4F8803043F08003EE
:10486800C4F88030E36E5B6D012B03D0236F5B6D62
:10487800012B0DD12268136823F4003313602046FE
:10488800FFF734FA012384F87D300023A4F86A3056
:104898002046FFF7DEFF10BD90F87D3070B5044666
:1048A800002B6DD0036859691A691D680E0705D574
:1048B800160703D5836FBDE870401847CE0709D5A2
:1048C800D00707D501229A6194F87D30222B18BFB2
:1048D80002224DE08E0709D5900707D502229A617A
:1048E800636F002B4CD0BDE8704018478E0606D584
:1048F800900604D5D4F8803043F0040307E04E0650
:1049080012D5500610D5D4F8803043F00803AE0312
:10491800C4F8803003D42046FFF781FD2DE0E06E17
:1049280080B9206F70B92BE04D071BD5500719D5FA
:10493800D4F88020E06E42F02002C4F8802008B944
:10494800206F28B10F4B0365BDE87040FEF762B8D1
:104958004FF0FF3218619A61012384F87D30A4F882
:104968006A000AE0C9060BD5D20609D510229A6159
:10497800D4F880301343C4F880302046FFF769FF2D
:1049880070BD00BF9149000810B5846B23681A6890
:1049980022F400321A6000221A614FF0FF329A6145
:1049A800D4F88030202B07D02046FFF79FF92268E3
:1049B800536843F008035360012384F87D300023D3
:1049C800A4F86A302046FFF744FF10BD90F87D0038
:1049D8007047D0F880007047012380F8453003689D
:1049E8001A6822F490721A609A6822F001029A609A
:1049F8007047F8B504460E4617461D462368D86921
:104A08003040B04221D06A1CF9D0C5B923681A6871
:104A180022F080021A601A6822F020021A601A68CE
:104A280022F480721A609A6822F001029A600123C7
:104A380084F84530002384F844300320F8BDFBF7A0
:104A4800AFFEC01BA842D9D3E0E70020F8BD7047ED
:104A580010B50446002800F0BE8090F845301BB918
:104A680080F8443001F02EFA022384F84530236898
:104A7800A1681A6822F001021A60226918680A43BC
:104A8800616942F4004211435F4A02400A431A60D6
:104A9800E169226A0A43616A42F4006242EA01005B
:104AA8005A68E16822F47C5201430A435A60574A23
:104AB800934208D102F594325549D2F8902002F079
:104AC80003028A5C89E0534A934209D102F5FA321B
:104AD8004F49D2F8902002F00C020A4412797CE087
:104AE8004D4A93420DD14D4BD3F8903003F030032B
:104AF800102B2AD001D8CBB139E0202B1CD0302B79
:104B080012E0474A934232D1444BD3F8903003F431
:104B18004063B3F5806F18D001D853B127E0B3F5DF
:104B2800006F09D0B3F5406F18D020E0FCF744FBC4
:104B38000DE0FCF759FB0AE06068420802F1F473E3
:104B480003F59043B3FBF0F00EE0FCF741FA62681E
:104B5800530803EB4000B0FBF2F005E06368580827
:104B680000F58030B0FBF3F080B2002301E00020B4
:104B7800012320F00F012268C0F342000843D060EF
:104B88004BBB536823F480435360936823F02A0394
:104B98009360136843F0010313600023A364FBF7D9
:104BA800FFFD23681B681B0702460BD520464FF400
:104BB80000114FF47A73FFF71CFF18B1032084F833
:104BC800450010BD0123002084F8453084F84400D6
:104BD80010BD0022DA60012010BD082AF9D801A111
:104BE80051F822F0354B00083B4B0008414B0008B8
:104BF800DB4B0008534B0008DB4B0008DB4B00087D
:104C0800DB4B0008654B0008F369FFEF001001401B
:104C180078900008004400400048004000380240F6
:104C280000140140704738B5054680B1022380F86A
:104C38004530036800241C605C609C60FFF7F2FF4D
:104C4800AC6485F8454085F84440204638BD0120CD
:104C580038BD2DE9F041044690F8450001280D467D
:104C680090461E4646D1002945D0002A43D094F8E4
:104C78004430012B3ED00023A364122384F844005F
:104C880084F84530FBF78CFDA4F82C800746A4F87F
:104C98002E80E38D9BB2F3B1E38D013B9BB2E3859C
:104CA800204640213A463346FFF7A3FE10B10320C1
:104CB800BDE8F081A3682268B3F5805F07D1236956
:104CC8002BB935F8023BC3F308039362E1E72B786D
:104CD80093620135DDE7204640213A463346FFF727
:104CE80088FE0028E3D1012384F8453084F8440085
:104CF800BDE8F0810220BDE8F0812DE9F0410446CD
:104D080090F8450001280D4690461F4665D10029B8
:104D180064D0002A62D094F84430012B5DD000237F
:104D2800A364222384F8453084F84400FBF738FD57
:104D3800A368A4F83480B3F5805F0646A4F83680EB
:104D480004D123692BB940F2FF130DE02BB9236975
:104D58000BB9FF2308E07F2306E0B3F1805F04D19D
:104D68002369002BF7D03F232387B4F83880E08EDF
:104D780080B258B3E38E013B9BB2E38620464021C4
:104D880032463B46FFF735FE10B10320BDE8F081FF
:104D98002368FF229A622046202132463B46FFF7CD
:104DA80028FE0028F1D1A368B3F5805F236807D1F6
:104DB80022692AB95B6A08EA030325F8023BD6E7A9
:104DC8005B6A08EA03032B700135D0E7012384F8F6
:104DD800453084F84400BDE8F0810220BDE8F08148
:104DE8002DE9F041044690F8450001280D46164685
:104DF80098467FD100297ED0002A7CD0002B7AD01B
:104E080094F84430012B75D00023A364222384F83E
:104E1800453084F84400FBF7C3FCA368A4F82E804F
:104E2800B3F5805F0746A4F83480A4F82C80A4F872
:104E3800368004D123692BB940F2FF130DE02BB95A
:104E480023690BB9FF2308E07F2306E0B3F1805FF5
:104E580004D12369002BF7D03F232387B4F8388087
:104E6800E08D80B200283ED0E38D013B9BB2E38504
:104E7800E38E013B9BB2E386204640213A46069BDF
:104E8800FFF7B7FD10B10320BDE8F081A3682268E1
:104E9800B3F5805F07D123692BB935F8023B08EADF
:104EA8000303936204E02B7803EA08039362013555
:104EB800204620213A46069BFFF79BFD0028E2D1B9
:104EC800A368B3F5805F236807D122692AB95B6AB2
:104ED80008EA030326F8023BC2E75B6A08EA030311
:104EE80033700136BCE7012384F8453084F8440068
:104EF800BDE8F0810220BDE8F08110B5044690F8C5
:104F08004500012816D1B1B1AAB194F84430012B5B
:104F180010D00023A1622168E285A285A364122231
:104F280084F845208A6884F8443042F001028A6097
:104F3800184610BD022010BD90F84530012B10B561
:104F48003DD1002939D0002A37D090F84440012CAF
:104F580035D00163816880F84430B1F5805F82867E
:104F6800C28604D103692BB940F2FF130DE029B9B9
:104F780003690BB9FF2308E07F2306E0B1F1805FE6
:104F880004D10369002BF7D03F230387222280F83E
:104F98004520002302688364146844F49074146004
:104FA8009468B1F5805F44F001040CBF40F2FF1132
:104FB800FF21946080F844309162184610BD0220A9
:104FC80010BD30B590F84540012C45D1002941D09D
:104FD800002A3FD0002B3DD090F84450012D3BD003
:104FE800C38683868385C385836880F84440B3F588
:104FF800805F0263816204D103692BB940F2FF1319
:105008000DE02BB903690BB9FF2308E07F2306E005
:10501800B3F1805F04D10369002BF7D03F230387E6
:10502800322280F84520002302688364116841F029
:1050380020011160116841F480711160916841F09C
:1050480001019160116880F8443041F080011160DD
:10505800184630BD204630BD022030BD70B505462B
:1050680090F84500012813462FD100292ED0002A98
:105078002CD095F84420012A27D085F84400122224
:10508800E86B85F845200024114AEB85AB85AC64B4
:10509800A962C2630F4A02640F4AC2642A6896680A
:1050A80046F001069660D66946F00F06D6612832AA
:1050B800FDF72FFC2B6840221A629A6885F8444055
:1050C80042F080029A60204670BD022070BD00BF89
:1050D800A3530008DD5300088B550008F8B50546B2
:1050E80090F8450001280F46164648D1002947D0B8
:1050F800002A45D095F84430012B40D085F844006B
:105108002223286C85F8453000241E4BAC642963A3
:10511800AA86A962AA85C3631B4B03642968EB6B43
:105128001A4AC2641C651C64DC63DA648B6843F049
:1051380001038B60CB6943F00F03CB613A463346DA
:105148002431FDF7E6FB2A68E86B334639462832F6
:10515800FDF7DFFB2B6885F844401A6842F480723B
:105168001A609A6842F001029A609A6842F0400216
:105178009A609A6842F080029A602046F8BD022040
:10518800F8BD00BF675400085B5400088B55000841
:10519800F8B5054690F8450001280F461E4656D139
:1051A800002F55D0002A53D0002B51D095F84440F9
:1051B800012C4CD085F844003221286C85F8451024
:1051C80000242449AC642A63AB86AB85AF62C16313
:1051D80021490164E96BDFF884E0C1F83CE0DFF8BD
:1051E80080E0C1F840E0DFF87CE0C1F84CE02968D5
:1051F800C0F84CE0D1F808E04EF0010EC1F808E024
:10520800D1F81CE04EF00F0EC1F81CE02431FDF778
:1052180080FB2A68E86B334639462832FDF779FB6C
:105228002B6840221A621A6885F8444042F480725A
:105238001A609A6842F001029A609A6842F0400245
:105248009A609A6842F080029A602046F8BD02206F
:10525800F8BD00BF675400085B540008A35300085A
:10526800DD5300088B55000890F84430012B2BD0F3
:10527800012380F8443090F84530122B05D102689C
:10528800936823F08003936019E0222B0CD1036804
:105298001A6822F490721A609A6822F001029A60E1
:1052A8009A6822F0400209E0322B08D103689A6814
:1052B80022F040029A609A6822F080029A600023E5
:1052C80080F84430184670470220704790F8443000
:1052D800012B2FD0012380F8443090F84530122B51
:1052E80005D10268936843F0800393601DE0222B88
:1052F8000ED1036808221A621A6842F490721A6082
:105308009A6842F001029A609A6842F040020BE003
:10531800322B0AD1036808221A629A6842F04002C6
:105328009A609A6842F080029A60002380F84430BC
:10533800184670470220704790F84530122B10B578
:10534800044613D103689A6812060FD5012280F823
:1053580045201A68C06B22F0C0021A6008B1FDF738
:1053680016FB2268936823F08003936094F8453015
:10537800222B0FD123689B685B060BD52046FFF7CD
:105388002BFB206C08B1FDF702FB2268936823F021
:1053980040039360002010BD70470268126808B58A
:1053A800836B12F4807293F845100CD11229DA85B8
:1053B8000ED11B689A6822F080029A601A6842F03F
:1053C80040021A6008BD122902D1184600F010FEEA
:1053D80008BD704708B5806BFFF7FBFF08BD704735
:1053E80090F84530222B10B5048F2DD183680268C0
:1053F800B3F5805F036B08D1016931B9516A04EADA
:10540800010223F8022B036304E0526A591C22406C
:1054180001631A700368FF229A62C48E013CA4B229
:10542800C4869CB91A6822F020021A601A6822F40D
:1054380080721A609A6822F001029A60012380F84B
:10544800453000F0CDFD01E0022010BD002010BD68
:10545800704708B5806BFFF7FBFF08BD704703680E
:105468001B6810B5846B13F4807394F845101DD134
:10547800E38623681A6822F490721A609A6822F008
:1054880001029A609A6822F040029A609A6822297A
:1054980022F080029A60204602D100F0A1FD01E0CE
:1054A800FFF7DCFF012384F8453010BD2229204690
:1054B80002D100F095FD10BDFFF7D0FF10BD90F8A8
:1054C8004530018F322B10B556D1C38D9BB203B333
:1054D8000268D3691C061CD58368B3F5805F836AAC
:1054E80007D104692CB933F8024B0C4094628362EB
:1054F80004E05C1C84621B780B409362C38D013B03
:105508009BB2C385C38D9BB21BB9136823F080037C
:105518001360C38E9BB2CBB10268D3699B0615D5C5
:105528008368B3F5805F036B07D104692CB9526AAD
:10553800114023F8021B036304E0526A5C1C11400B
:1055480004631970C38E013B9BB2C386C48EA4B298
:10555800A4B903681A6822F020021A601A6822F4B3
:1055680080721A609A6822F001029A60012380F81A
:105578004530FFF773FF01E0022010BD002010BD89
:10558800704710B5846B0023E386E38594F84530B3
:10559800122B0BD123689A68120641BF012284F8A6
:1055A80045201A6822F0C00248BF1A6094F84530B6
:1055B800222B06D123689B685B0602D52046FFF79D
:1055C8000BFAA36C43F01003A364012384F845305D
:1055D8002046FFF7D5FF10BD036870B5DD691E686A
:1055E8009A68290704460DD1AA0611D5B3060FD526
:1055F80090F84530222B02D1FFF7F2FE08E0FFF7C2
:105608005EFF05E012F0010246D116F4907F43D107
:1056180028062DD531062BD594F84530122B23D1E9
:10562800E38D22689BB243B9136823F080031360AB
:10563800136843F04003136070BDA368B3F5805F3F
:10564800A36A08D1216931B933F8021BC1F30801F3
:105658009162A36203E0591CA1621B789362E38DF7
:10566800013B9BB2E38570BD2046BDE8704026E74C
:105678006A0667D5730665D523681A6822F0400262
:105688001A609A6822F001029A60012384F8453072
:10569800204600F0ADFC70BDE90708D5F00541BF14
:1056A80001211962A16C41F0010148BFA164A90759
:1056B80006D52AB102211962A16C41F00401A16446
:1056C800680706D52AB104211962A16C41F00201CC
:1056D800A164290705D522B108221A62A36C1343D5
:1056E800A364A36C002B2DD0AA0604D5B30602D55B
:1056F8002046FFF775FEA36C1E07204604D42368D6
:105708009B6813F0400519D0FFF766F923689A687B
:1057180055060FD59A68206C22F040029A6048B16D
:10572800094B0365FDF776F960B1206CBDE8704060
:10573800036D18472046FFF723FF70BDFFF720FFD2
:10574800A56470BD70BD00BF5557000808B5806BD3
:105758000023C386C385FFF713FF08BD90F84500F3
:105768007047806C704700BFF0B5304C304F8BB03D
:1057780000F0B6FD236B43F008032363236B03F0AB
:105788000803009300250126009B06954FF45063FB
:10579800384605A905930796FCF72EFE236B254886
:1057A80043F002032363236B03F002030193019B7D
:1057B80005A94FF4C0430593FCF71EFE236B43F085
:1057C80008032363236B03F008030293029B384604
:1057D800322305A90593FCF70FFE236B16483343C4
:1057E8002363236B33400393039B05A94FF40043C2
:1057F8000593FCF701FE236B104843F00403236371
:10580800236B059603F004030493049B0C4B069347
:1058180005A90795FCF7F0FD29462A460620FBF75F
:1058280067F80620FBF794F80BB0F0BD003802408B
:10583800000C024000040240000002400008024040
:105848000000211008B500F089FD0D4B1A6B22F0FD
:1058580008021A631A6B22F002021A631A6B22F00A
:1058680008021A631A6B22F001021A631A6B22F0FB
:1058780004021A630620BDE80840FBF775B800BFAC
:105888000038024001460148FCF738BF000C0240CE
:1058980008B501460348FCF731FFB0FA80F040092B
:1058A80008BD00BF00040240B0F5004F08B501462E
:1058B8000CBF04480448FCF721FFB0FA80F0400907
:1058C80008BD00BF00000240000C024038B50023AC
:1058D8000446057803704FF48070FFF7D3FF2378F0
:1058E800184320704FF40060FFF7CCFF237843EA99
:1058F800400020704FF48060FFF7C4FF237843EA2C
:10590800800020704FF48040FFF7C2FF237843EAFD
:10591800C00020704FF40050FFF7BAFF237843EA25
:105928000010C0B22070401B18BF012038BD38B528
:1059380000230446057803701020FFF7B5FF23788D
:1059480043EA401020702020FFF7AEFF237843EA97
:10595800801020704FF400410648FCF7CFFE2378F2
:10596800B0FA80F0400943EAC0102070401B18BF0D
:10597800012038BD000002400120FCF7E3BE70475B
:10598800704700BF2DE9F041A4B04FF40023009305
:105998004FF4AC73424D0593002601270723804638
:1059A800404C069368460F960A97FBF7CDFC3E4B92
:1059B80085F87D6084F87D601A682B6022F4803257
:1059C8001A604FF400532B61C0236B6340232B6490
:1059D80020236B644FF48033AB644FF480232B6532
:1059E800284602236E60AE60EF606E61AF61C5F855
:1059F8001C802E63AE63EF63EE646E65AE65EB6587
:105A08002F66FEF794F910B1284800F00DFB284BDB
:105A180023601A68234822F48032C0211A60616327
:105A280040210323216420216360616400234FF433
:105A380080310122236163612363A363A164E3646A
:105A48004FF480216365A3650223A260E260A2612E
:105A5800C4F81C80E2632165E3652266FEF767F9F6
:105A680010B1124800F0E0FA22681248136843F4B3
:105A7800803313602A68136843F48033136002216B
:105A88000022FCF741FE4FF47A7300BF013BFCD1C2
:105A9800084802210122FCF737FE24B0BDE8F08156
:105AA800384C00203C4E00200458014080A10008DA
:105AB800245801400010024008B500220F4B002175
:105AC80043F822100E494FF0773341F82230013263
